:100000000C94D0060C9419070C9419070C9419073A
:100010000C9419070C9419070C9419070C941907E0
:100020000C9419070C9419070C94160F0C94EC0FF0
:100030000C94381E0C9419070C9419070C9419078A
:100040000C9419070C9419070C9419070C941907B0
:100050000C9419070C94AC1E0C9419070C941907F6
:100060000C9419070C9419070C9419070C94190790
:100070000C9419070C9419070C9419070C94190780
:100080000C9419070C9419070C9419070C94190770
:100090000C9419070C941907D507DA07DF07E40752
:1000A000E907EE07F307F8075D107F106D117F1069
:1000B0006D11C410E7106D113C114F119F149F1466
:1000C000CC14CC14271563155B175B177B155B17D6
:1000D0007616761631175B175B174717000000007E
:1000E000000000000000000000000000F1A1F1A2EB
:1000F000F1A3F1A4F1A5F1A6F1A7028A048A088A66
:10010000218A228A248A288A00C001C002C003C032
:1001100004C005C006C007C0291E1F2021222324B9
:100120002526272D2E2A2B141A0815171C180C12F9
:10013000132F303139041607090A0B0D0E0F333413
:100140002828E11D1B06190511103637384B524E71
:10015000E0E3E2C0002C002CE0007650514F353A2D
:100160003B3C3D3E3F4041424344450101010101CA
:10017000010101010101010101010101010101016F
:10018000010101010101010101010101010101015F
:100190000101010101010101010100010001010151
:1001A000010101010101010101010101010101013F
:1001B000010101010101010101010101010101012F
:1001C000010101010101010101010101010101011F
:1001D000010101010101010101010101010101010F
:1001E0000001000101010101010101010101010101
:1001F00001010101010101010101010101010101EF
:1002000001010101010101010101010101010101DE
:1002100001010101010101010101010101010101CE
:1002200001010101010100010001010101010101C0
:1002300001010101010101010101010101010101AE
:10024000010101010101010101010101010101019E
:10025000010101010101010101010101010101018E
:100260000101010101010101010101010001000180
:10027000010101010101010101010101010101016E
:10028000010101010101010101010101010101015E
:10029000010101010101010101010101010101014E
:1002A000010101010101010101010101010101013E
:1002B0000101000100010101010101010101010130
:1002C000010101010101010101010101010101011E
:1002D000010101010101010101010101010101010E
:1002E00001010101010101010101010101010101FE
:1002F00001010101010101010001000101010101F0
:1003000001010101010101010101010101010101DD
:1003100001010101010101010101010101010101CD
:1003200001010101010101010101010101010101BD
:1003300001010101010101010101010101010001AE
:1003400000010101010101010A002530313662007E
:100350003A200025303258000A722F6320303132A3
:10036000333435363738394142434445460A000A6A
:10037000002530325800626F756E6365213A2000A7
:100380005B735D004B6579626F61726420737461A9
:1003900072742E0A0055534220636F6E666967754A
:1003A0007265642E0A005B575D005B535D005B5213
:1003B0005D005B445D005B435D001A034600720014
:1003C00065006400270073002000530049004E00C0
:1003D0004100500000000C034600720065006400FC
:1003E000480000000403090409028D00050100A073
:1003F000320904000001030101000921110100017B
:100400002240000705810308000A090401000103D6
:10041000010200092111010001224D00070582039C
:1004200008000A090402000103000000092111016B
:1004300000012236000705830308000A09040300AF
:10044000020300000009211101000122220007051A
:1004500084032000010705040320000109040400AF
:1004600001030000000921110100012239000705E4
:1004700085031000011201100100000008EDFE606C
:100480006001000102000105010906A1010507192B
:10049000E029E71500250195087501810205081975
:1004A00001290595057501910295017503910105D5
:1004B000071900297715002501957875018102C07B
:1004C0000631FF0974A1010975150026FF0095206A
:1004D000750881020976150026FF009520750891A0
:1004E00002C005010980A101850216010026B7009E
:1004F0001A01002AB700751095018100C0050C098A
:1005000001A1018503160100269C021A01002A9C04
:1005100002751095018100C005010902A1010901C0
:10052000A100050919012905150025019505750189
:100530008102950175038101050109300931158199
:10054000257F95027508810609381581257F95015B
:1005500075088106050C0A38021581257F950175FD
:10056000088106C0C005010906A101050719E02997
:10057000E71500250195087501810295017508812F
:100580000105081901290595057501910295017567
:100590000391010507190029FF150026FF009506A4
:1005A00075088100C00A002530325820006B65793B
:1005B000626F6172645F7265706F72743A20004C92
:1005C00045443A20253032580A0064656C5F6B65FB
:1005D000795F6269743A2063616E27742064656C88
:1005E0003A20253032580A006164645F6B65795F98
:1005F0006269743A2063616E2774206164643A20F2
:10060000253032580A00646F6E652E0A00626F6FE3
:10061000746D61676963207363616E3A202E2E2EBC
:100620002000290A002575002F002575005D28008F
:10063000256400200025640020002564002000259A
:1006400064007C0025303258006D6F7573656B65F2
:1006500079205B62746E7C782079207620685D2832
:100660007265702F61636C293A205B006D6B5F7758
:100670006865656C5F74696D655F746F5F6D6178E7
:10068000203D2025640A006D6B5F776865656C5FAF
:100690006D61785F7370656564203D2025640A0094
:1006A0006D6B5F74696D655F746F5F6D6178203D20
:1006B0002025640A006D6B5F6D61785F73706565FE
:1006C00064203D2025640A006D6B5F696E7465725D
:1006D00076616C203D2025640A006D6B5F64656C5B
:1006E0006179203D2025640A006D6B5F7768656540
:1006F0006C5F74696D655F746F5F6D6178203D201C
:1007000025640A006D6B5F776865656C5F6D617865
:100710005F7370656564203D2025640A006D6B5F22
:1007200074696D655F746F5F6D6178203D2025642D
:100730000A006D6B5F6D61785F7370656564203D65
:100740002025640A006D6B5F696E74657276616C5A
:10075000203D2025640A006D6B5F64656C61792023
:100760003D2025640A000A00257500363A20776886
:1007700065656C5F74696D655F746F5F6D61783A14
:1007800020000A00257500353A20776865656C5FA2
:100790006D61785F73706565643A20000A002575A5
:1007A00000343A2074696D655F746F5F6D61783AEB
:1007B00020000A00257500333A206D61785F737060
:1007C0006565643A20000A00257500323A20696E9A
:1007D00074657276616C286D73293A20000A0025D1
:1007E0007500313A2064656C6179282A31306D7367
:1007F000293A20000A092D2056616C756573202D59
:100800000A004D3E004D25643E20003F0073657494
:100810002064656661756C740A00433E2000776849
:100820006572652064656C74613A20637572736FDC
:10083000723D25642C20776865656C3D25640A53FC
:10084000656520687474703A2F2F656E2E77696B1A
:100850006970656469612E6F72672F77696B692FA4
:100860004D6F7573655F6B6579730A000A092D20FA
:100870004D6F7573656B6579202D0A4553432F7154
:100880003A09717569740A313A0964656C617928AD
:100890002A31306D73290A323A09696E74657276AD
:1008A000616C286D73290A333A096D61785F737042
:1008B0006565640A343A0974696D655F746F5F6DCC
:1008C00061780A353A09776865656C5F6D61785FB4
:1008D00073706565640A363A09776865656C5F749C
:1008E000696D655F746F5F6D61780A0A703A0970AF
:1008F00072696E742076616C7565730A643A097367
:1009000065742064656661756C74730A75703A0964
:100910002B310A646F776E3A092D310A7067757052
:100920003A092B31300A7067646F776E3A092D31BE
:10093000300A0A7370656564203D2064656C7461DB
:10094000202A206D61785F7370656564202A2028F5
:10095000726570656174202F2074696D655F746FB6
:100960005F6D6178290A003F004D3E2000433E2024
:10097000004C25640A000A092D20436F6E736F6CCA
:1009800065202D0A4553432F713A09717569740A20
:100990006D3A096D6F7573656B65790A000A092DEB
:1009A000204D61676963202D0A643A0964656275A8
:1009B000670A783A096465627567206D61747269C7
:1009C000780A6B3A096465627567206B6579626FB6
:1009D0006172640A6D3A096465627567206D6F75AE
:1009E00073650A763A0976657273696F6E0A733AAF
:1009F000097374617475730A633A09636F6E736F78
:100A00006C65206D6F64650A302D343A096C61792C
:100A10006572302D34284631302D4634290A506114
:100A200075733A09626F6F746C6F616465720A6501
:100A30003A09656570726F6D0A6E3A094E4B524FF6
:100A40000A000A002575002E6E6B726F3A20000AAC
:100A5000002575002E737761705F6261636B736C44
:100A60006173685F6261636B73706163653A2000F4
:100A70000A002575002E737761705F677261766575
:100A80005F6573633A20000A002575002E6E6F5F64
:100A90006775693A20000A002575002E737761702A
:100AA0005F72616C745F726775693A20000A002595
:100AB00075002E737761705F6C616C745F6C677525
:100AC000693A20000A002575002E636170736C6F0F
:100AD000636B5F746F5F636F6E74726F6C3A20004C
:100AE0000A002575002E737761705F636F6E7472F4
:100AF0006F6C5F636170736C6F636B3A20000A0008
:100B000025303258006B65796D61705F636F6E667A
:100B100069672E7261773A20000A002575002E6DF4
:100B20006F7573653A20000A002575002E6B657994
:100B3000626F6172643A20000A002575002E6D61B3
:100B4000747269783A20000A002575002E656E617E
:100B5000626C653A20000A002530325800646562F4
:100B600075675F636F6E6669672E7261773A200002
:100B70000A0025750064656661756C745F6C617947
:100B800065723A20003F004E4B524F3A206F666626
:100B90000A004E4B524F3A206F6E0A0074696D6521
:100BA000725F72656164333228293A202530346CD3
:100BB000580A006B6579626F6172645F6E6B726F69
:100BC0003A2025580A006B6579626F6172645F692B
:100BD000646C653A2025580A006B6579626F617212
:100BE000645F70726F746F636F6C3A2025580A00EF
:100BF000686F73745F6B6579626F6172645F6C6557
:100C0000647328293A2025580A000A092D205374B4
:100C100061747573202D0A004743433A20342E39FE
:100C20002E32204156522D4C4942433A20312E3823
:100C30002E3073766E204156525F415243483A201F
:100C400061767235310A004F5054494F4E533A2065
:100C50004C55464120424F4F544D41474943204D4A
:100C60004F5553454B45592045585452414B4559D2
:100C700020434F4E534F4C4520434F4D4D414E4422
:100C8000204E4B524F20323034380A004255494CE6
:100C9000443A2037666130343036202832313A31D8
:100CA000353A3230204170722031312032303137C4
:100CB000290A005649443A2030784645454428469A
:100CC0007265644829205049443A203078363036DD
:100CD00030284672656427732053494E41502920BD
:100CE0005645523A203078303030310A004445536E
:100CF000433A20437573746F6D204B6579626F6161
:100D000072640A000A092D2056657273696F6E209D
:100D10002D0A000A6D6F7573653A206F66660A00CA
:100D20000A6D6F7573653A206F6E0A000A6B6579FC
:100D3000626F6172643A206F66660A000A6B6579B9
:100D4000626F6172643A206F6E0A000A6D6174729C
:100D500069783A206F66660A000A6D617472697874
:100D60003A206F6E0A000A64656275673A206F6EFA
:100D70000A000A64656275673A206F66660A000AAF
:100D80000A626F6F746C6F616465722E2E2E200084
:100D9000433E20006565636F6E6669673A0A00002E
:100DA00011241FBECFEFD0E2DEBFCDBF04B603FEDD
:100DB00027C08091E6019091E701A091E801B091F0
:100DC000E9018730904BA740B04BD1F41092E60177
:100DD0001092E7011092E8011092E90114BE84B765
:100DE000877F84BF0FB6F894A895809160008861D2
:100DF00080936000109260000FBEE0E0FCEF099568
:100E000011E0A0E0B1E0E0E0F7E500E00BBF02C0D8
:100E100007900D92A833B107D9F721E0A8E3B1E01C
:100E200001C01D92A63EB207E1F70E94460C0C9449
:100E30007E2B0C940000FF93EF93E0913801F0912A
:100E40003901309709F00995EF91FF910895FC0160
:100E50008591803011F0EFDFFBCF0895FF27E0E2AE
:100E600030E247FF0CC0419597FF09C0EDE2609565
:100E7000709580959095611D711D811D911D27FFB5
:100E800002C0219530E350E2AA27660F771F881F22
:100E9000991FAA1FA41710F0A41B63955A95A9F7D0
:100EA000AA3008F0A95FA05DAF93F39561157105B5
:100EB0008105910541F7ED3211F4EF93F395F217A7
:100EC00018F43F93F395FBCF8F91B5DFFA95E1F7D7
:100ED0000895E991F9918591803021F0853219F0DA
:100EE000AADFF9CF089520E0E89455915532C1F377
:100EF000503311F4689455915A3348F4505390F399
:100F0000220F022E220F220F200D250FF4CF0EF4F8
:100F1000219589919991533619F3533729F1533516
:100F200059F1BC0188279927E8945C3621F489910E
:100F3000999168945591543639F446EF7EF077FFD5
:100F40000DC08FEF9FEF0AC055374AE039F0583592
:100F500040E121F0523642E009F00895FF93EF930B
:100F60007DDFEF91FF91B7CFFF93EF93FC0181916C
:100F70008030B9F360DFFBCFFF93EF9368DFF1CFF1
:100F8000DF93CF93CDB7DEB72596A3DFCF91DF9167
:100F90000895FC018281462F50E04830510568F5E4
:100FA000FA01E45BFF4F0C94302B811129C08AEECB
:100FB00090E00895811127C088EE90E00895811196
:100FC00025C086EE90E00895811123C084EE90E064
:100FD0000895811121C082EE90E0089581111FC013
:100FE00080EE90E0089581111DC08EED90E008958F
:100FF00081111BC08CED90E0089580E090E0089591
:101000008BEE90E0089589EE90E0089587EE90E0F1
:10101000089585EE90E0089583EE90E0089581EEC6
:1010200090E008958FED90E008958DED90E00895A3
:101030009EE0799FF001112496E4899FE00DF11D57
:101040001124E60FF11DE85EFE4F84910895E82F0C
:10105000F0E0EE0FFF1FE459F04085919491089560
:101060008AB1807E8AB98BB1807E8BB9089585B7AD
:10107000806885BF85B7806885BF0E94300884B1CD
:1010800014B885B18FEF85B980B38C7080BB81B304
:10109000836F81BBE4E4F1E0AAE3B1E01192119225
:1010A0001D921D9281E0EE34F807C1F70895BF92BA
:1010B000CF92DF92EF92FF920F931F93CF93DF9324
:1010C0000AE311E0E801B12CDD24D394E5E0CE2E53
:1010D000F1E7EF2EF3E0FF2E82E0B81691F08B15CA
:1010E00020F091E0B91651F006C0A3E0BA1661F005
:1010F000B4E0BB1661F0509A58980BC0519A5998B9
:1011000008C0529A5A9805C0539A5B9802C0549AE4
:101110005C9880EA8A95F1F783B181708D2590E023
:10112000199903C022E030E002C020E030E0822BB9
:10113000932B1A9903C024E030E002C020E030E095
:10114000822B932B1B9903C028E030E002C020E0E3
:1011500030E0822B932B1C9903C0E0E1F0E002C049
:10116000E0E0F0E08E2B9F2B1D9903C060E270E061
:1011700002C060E070E0862B972B1E9903C020E42C
:1011800030E002C020E030E0AC01422B532B23B111
:10119000022E000C330B20953095C9018827990F3A
:1011A000881F99279695982F882797958795842B40
:1011B000952B789903C020E031E002C020E030E0B8
:1011C000822B932B799903C020E032E002C020E00B
:1011D00030E0822B932B7C9903C0E0E0F4E002C066
:1011E000E0E0F0E08E2B9F2B7D9903C060E078E07B
:1011F00002C060E070E0862B972B7E9903C020E050
:1012000030E102C020E030E0AC01422B532B2FB183
:10121000022E000C330B20953095C9018827990FB9
:10122000881F9927982F88279295990F907E842B55
:10123000952B288139812817390741F199838883B3
:1012400080910001882301F18091C70180FF04C0D3
:1012500086E793E00E9427078091C70180FF0CC0BA
:10126000809100011F928F93FF92EF920E94C0071E
:101270000F900F900F900F908091C70180FF04C0D6
:101280008FE693E00E942707C09200010E94300879
:10129000B394229695E0B9121FCF80910001882364
:1012A000C1F0815080930001882339F0AFE9BFE09D
:1012B0001197F1F700C000000CC0E4E4F1E0D801A0
:1012C0008D919D918D0181939193B1E004341B0721
:1012D000B1F781E0DF91CF911F910F91FF90EF90D7
:1012E000DF90CF90BF900895E82FF0E0EE0FFF1F42
:1012F000EC5BFE4F808191810895CF92DF92EF9257
:10130000FF920F931F93CF93DF9388E593E00E94A2
:10131000270784E4E82E81E0F82EC0E0D0E093E5D2
:10132000C92E93E0D92E0AE413E0DF93CF93DF9226
:10133000CF920E94C00780E593E00E942707F70143
:10134000819191917F010E94C71D9F938F931F935D
:101350000F930E94C00788E493E00E94270721961C
:101360008DB79EB708960FB6F8949EBF0FBE8DBF7F
:10137000C530D105D1F6DF91CF911F910F91FF902C
:10138000EF90DF90CF9008950895809161010895C6
:101390009FB7F894109250019FBF9091DC01943058
:1013A00009F057C09091E9009F703091EC00232F15
:1013B000217030FD20E8922B24E02093E900209159
:1013C000EB0020FF43C02091EE0027FF3FC020919B
:1013D0004E01222321F02091E80025FF37C0109212
:1013E0004E0126E03091E80035FD15C03091DC015A
:1013F000343061F53091EB0035FD28C0215021F4E7
:1014000081E080934E0122C0EFE9FFE03197F1F7D0
:1014100000C00000E7CF8093F1008091E80085FDD7
:101420000AC08091E80080FFFCCF8091E8008E77B1
:101430008093E80006C08FB7F89421E02093500114
:101440008FBF9F709093E90080E008959F70909304
:10145000E9008FEF0895CF93DF9300D01F92CDB7AF
:10146000DEB79C018091DC01843019F593E099830B
:101470003B832A839093E9008FEF9091E80081509D
:1014800095FD06C095ED9A95F1F700008111F5CF15
:101490008091E80085FF0DC040E050E063E070E01F
:1014A000CE0101960E94070D8091E8008E7780930F
:1014B000E8000F900F900F90DF91CF910895CF9398
:1014C000DF9300D01F92CDB7DEB72091DC0124302E
:1014D00021F522E029839B838A8383E08093E900BE
:1014E0008FEF9091E800815095FD06C095ED9A959B
:1014F000F1F700008111F5CF8091E80085FF0DC064
:1015000040E050E063E070E0CE0101960E94070DDC
:101510008091E8008E778093E8000F900F900F90F5
:10152000DF91CF9108952091DC012430F1F422E085
:101530002093E9002FEF3091E800215035FD06C0DF
:1015400035ED3A95F1F700002111F5CF2091E80033
:1015500025FF0BC040E050E065E070E00E94070D01
:101560008091E8008E778093E8000895CF93DF9311
:101570002091DC01243009F048C0EC0180910B017E
:101580008823E1F080910C018823C1F085E08093ED
:10159000E9008FEF9091E800815095FD06C095E13C
:1015A0009A95F1F700008111F5CF8091E80085FF51
:1015B0002CC040E050E060E170E017C081E0809313
:1015C000E9008FEF9091E800815095FD06C095ED00
:1015D0009A95F1F700008111F5CF8091E80085FF21
:1015E00014C040E050E068E070E0CE010E94070DBA
:1015F0008091E8008E778093E80080E1FE01A1E50C
:10160000B1E001900D928A95E1F7DF91CF910895B5
:1016100086EB93E00E9427078091DB01811109C0CE
:101620000E94980E0E94FA0E8091E20084608093DE
:10163000E200089582EB93E00E9427071092DB01FD
:1016400008958EEA93E00C94270720914F012F5FB5
:10165000822F62E30E94102B992319F020934F01EF
:10166000089510924F0180915001882371F180916B
:10167000DC01843041F58091E9008F702091EC000D
:10168000922F917020FD90E8892B94E09093E900CF
:101690009091EB0090FF14C09091EE0097FF10C066
:1016A0009091E80095FF03C01092F100F9CF90915E
:1016B000E80090FF05C09091E8009E779093E800C5
:1016C0008F708093E90010925001089542E061EC20
:1016D00081E00E94120E42E061EC82E00E94120E54
:1016E00042E061EC83E00E94120E42E261EC84E091
:1016F0000E94120E42E161EC85E00C94120E809182
:10170000DE01833009F455C030F4813071F082304D
:1017100009F48EC008958A3009F47AC08B3009F438
:1017200060C0893009F09CC020C08091DD01813A01
:1017300009F096C08091E800877F8093E80080914F
:10174000E1019091E201892B21F460E181E591E0D2
:1017500003C060E080E090E070E00E94520D809154
:10176000E8008B778093E80008958091DD01813255
:1017700009F076C08091E1019091E201009719F0A3
:10178000049709F06DC08091E800877F8093E8009E
:101790008091E80082FD05C08091DC018111F8CFC5
:1017A0005FC08091F100809361018091E8008B77A8
:1017B00053C08091DD01813A09F052C08091E1016E
:1017C0009091E201892B09F04BC08091E800877F5E
:1017D0008093E8008091E80080FFFCCF80910B01AE
:1017E00036C08091DD018132D9F58091E10190917F
:1017F000E201892BA9F58091E800877F8093E800BA
:101800000E94470E8091DF0180930B010C947C179E
:101810008091DD01813221F58091E800877F8093FE
:10182000E8000E94470E8091E001809362010895D4
:101830008091DD01813AA1F48091E800877F809357
:10184000E8008091E80080FFFCCF809162018093E6
:10185000F1008091E8008E778093E8000C94470EA9
:1018600008950895089508958AEA93E00E9427074D
:101870000C94330C0E94F61D8091DA01882329F024
:101880000E94211E81110C94F10C089584B7877F6A
:1018900084BF0FB6F894A89580916000886180930A
:1018A0006000109260000FBE90E080E80FB6F894E0
:1018B00080936100909361000FBE0E94310C0E94E2
:1018C00017120E94980E0E94FA0E8091E200846026
:1018D0008093E20088EC99E00E94AC1D789480919E
:1018E000DC018430E1F785E993E00E9427070E943C
:1018F000191281E091E00E94851184E893E00E9432
:1019000027070E94320C8091DC01853039F480E891
:1019100093E00E9427070E943A0CF5CF0E941F1205
:10192000F2CF0C94361E86EA93E00E9427070C94AF
:10193000910C292F332723303105C9F064F421306D
:10194000310581F02230310509F043C08DE890E087
:1019500028EE33E042C021323105F1F02232310568
:1019600041F137C082E190E025E734E036C09927A5
:101970008130910541F08230910541F0892B49F584
:10198000E4EEF3E005C0E6EDF3E002C0EAEBF3E0DD
:10199000849190E09F0121C06530D8F4E62FF0E0FB
:1019A000EE0FFF1FEC5DFE4F2081318189E090E05A
:1019B00014C0653070F470E0FB01EE0FFF1FE65EAF
:1019C000FE4F20813181FB01EB5EFE4F808190E074
:1019D00004C080E090E020E030E0FA013183208311
:1019E000089584E189BD86E189BD09B400FEFDCF7B
:1019F0008091D8008F7D8093D8008091E000826034
:101A00008093E0008091E00081FDFCCF0895CF92AB
:101A1000DF92EF92FF920F931F93CF93DF93EC012E
:101A20008B016A010E94660E811133C0C114D1047A
:101A300039F0F60180819181081B190BC80FD91F5D
:101A4000E12CF12C0115110519F18091E80085FDBB
:101A500016C08091E8008E778093E800C114D1040D
:101A600049F0F60180819181E80EF91EF182E08251
:101A700085E00FC00E94660E882321F30AC0899179
:101A80008093F10001501109FFEFEF1AFF0ADACF3E
:101A900080E0DF91CF911F910F91FF90EF90DF9049
:101AA000CF9008952091E3013091E4012617370784
:101AB00048F06115710539F42091E8002E772093E4
:101AC000E80001C0B90140E06115710599F120916C
:101AD000DC01222309F441C0253009F440C02091E3
:101AE000E80023FD3EC02091E80022FD30C0209197
:101AF000E80020FFE9CF2091F2003091F300FC01D3
:101B0000CF016115710559F02830310540F48191FC
:101B10008093F100615071092F5F3F4FF1CF41E099
:101B20002830310509F040E02091E8002E7720931D
:101B3000E800CACF4111CBCF0AC08091DC018823D5
:101B400061F0853061F08091E80083FD0AC08091EA
:101B5000E80082FFF2CF80E0089582E0089583E0FC
:101B6000089581E008952091E3013091E401261762
:101B7000370748F06115710539F42091E8002E7798
:101B80002093E80001C0B901FC0120E06115710556
:101B900081F18091DC01882309F43EC0853009F48D
:101BA0003DC08091E80083FD3BC08091E80082FD4C
:101BB0002DC08091E80080FFE9CF8091F2009091E4
:101BC000F3006115710559F08830910540F42491B6
:101BD0002093F1003196615071090196F2CF21E016
:101BE000089709F020E08091E8008E778093E80064
:101BF000CDCF2111CECF0AC08091DC01882361F0C6
:101C0000853061F08091E80083FD0AC08091E80092
:101C100082FFF2CF80E0089582E0089583E0089586
:101C200081E00895982F973058F59093E900981720
:101C300039F07091EC002091ED005091F00003C05C
:101C4000242F762F50E021FF19C03091EB003E7F0A
:101C50003093EB003091ED003D7F3093ED003091FB
:101C6000EB0031603093EB007093EC002093ED00BB
:101C70005093F0002091EE0027FF07C09F5FD3CF65
:101C80008F708093E90081E0089580E0089580914D
:101C9000DD0187FF11C08091E80082FD05C08091C1
:101CA000DC018111F8CF11C08091E8008B770BC067
:101CB0008091DC01882349F08091E80080FFF8CF13
:101CC0008091E8008E778093E80008952091E400E9
:101CD0003091E50095E64091EC00842F817040FF43
:101CE00022C08091E80080FD1CC08091DC01882327
:101CF00091F0853091F08091EB0085FD10C040910E
:101D0000E4005091E5004217530729F39A019150DE
:101D100011F784E0089582E0089583E0089581E05A
:101D2000089580E008954091E80042FFDECF0895D5
:101D30000E94090F0E94110FE0EEF0E080818160A7
:101D40008083E8EDF0E080818F77808319BCA7ED78
:101D5000B0E08C918E7F8C9380818F7E80831092F7
:101D6000DB0108950F931F93CF93DF930E94090F18
:101D70000E94110FC8EDD0E088818F778883888119
:101D80008068888388818F7D8883E7EDF0E080819B
:101D90008068808319BC1092DC011092D8011092E7
:101DA000DA011092D90100EE10E0F80180818B7FFA
:101DB000808388818160888342E060E080E00E94C7
:101DC000120EE1EEF0E080818E7F8083E2EEF0E0A3
:101DD000808181608083808188608083F801808138
:101DE0008E7F8083888180618883DF91CF911F916E
:101DF0000F910895E8EDF0E080818F7E8083E7ED1C
:101E0000F0E080818160808381E08093DB010C942D
:101E1000B20EE8EDF0E080818C7F80831092E200CA
:101E200008951092DA001092E10008951F920F9227
:101E30000FB60F9211240BB60F922F933F934F932F
:101E40005F936F937F938F939F93AF93BF93EF9322
:101E5000FF938091E10082FF0BC08091E20082FF3E
:101E600007C08091E1008B7F8093E1000E94250BE9
:101E70008091DA0080FF1FC08091D80080FF1BC0D6
:101E80008091DA008E7F8093DA008091D90080FF04
:101E90000DC084E189BD86E189BD09B400FEFDCF96
:101EA00081E08093DC010E94080B05C019BC1092F0
:101EB000DC010E941A0B8091E10080FF19C0809123
:101EC000E20080FF15C08091E2008E7F8093E200E7
:101ED0008091E20080618093E2008091D80080626E
:101EE0008093D80019BC85E08093DC010E94340CFB
:101EF0008091E10084FF30C08091E20084FF2CC01B
:101F000084E189BD86E189BD09B400FEFDCF8091E1
:101F1000D8008F7D8093D8008091E1008F7E8093E0
:101F2000E1008091E2008F7E8093E2008091E200E8
:101F300081608093E2008091D801882311F084E0D1
:101F400007C08091E30087FD02C081E001C083E00B
:101F50008093DC010E94930C8091E10083FF29C0F3
:101F60008091E20083FF25C08091E100877F80930C
:101F7000E10082E08093DC011092D8018091E100C1
:101F80008E7F8093E1008091E2008E7F8093E2005B
:101F90008091E20080618093E20042E060E080E0B6
:101FA0000E94120E8091F00088608093F0000E94E1
:101FB000210BFF91EF91BF91AF919F918F917F91F5
:101FC0006F915F914F913F912F910F900BBE0F90AA
:101FD0000FBE0F901F9018951F920F920FB60F9281
:101FE00011240BB60F922F933F934F935F936F93F0
:101FF0007F938F939F93AF93BF93CF93DF93EF9391
:10200000FF93C091E900CF708091EC00D82FD17080
:1020100080FDD0E81092E9008091F000877F8093E6
:10202000F00078940E9434101092E9008091F00042
:1020300088608093F000CD2BCF70C093E900FF91B2
:10204000EF91DF91CF91BF91AF919F918F917F9150
:102050006F915F914F913F912F910F900BBE0F9019
:102060000FBE0F901F9018951F93CF93DF93CDB79E
:10207000DEB7AA970FB6F894DEBF0FBECDBFEDED69
:10208000F1E088E08E0F9091F10091938E13FBCFD9
:102090000E947F0B8091E80083FF1FC18091DD01CA
:1020A0009091DE01492F50E04A30510508F015C1EA
:1020B000FA01EC5AFF4F0C94302B803881F08238B3
:1020C00009F00BC18091E1018F708093E90080914C
:1020D000EB0085FB882780F91092E90006C080910B
:1020E000D9019091DA01911182609091E800977F77
:1020F0009093E8008093F1001092F100C8C0282F5F
:102100002D7F09F0EAC0882319F0823061F0E5C024
:102110008091DF01813009F0E0C0933009F080E068
:102120008093DA012BC08091DF01811127C080915B
:10213000E1018F7009F4D1C08093E9002091EB0098
:1021400020FF1CC0933021F48091EB00806214C00A
:102150009091EB0090619093EB0021E030E0A901B9
:1021600002C0440F551F8A95E2F74093EA0010928F
:10217000EA008091EB0088608093EB001092E90008
:102180008091E800877F86C08111A7C01091DF0190
:102190001F778091E3008078812B8093E30080910A
:1021A000E800877F8093E8000E94470E8091E80056
:1021B00080FFFCCF8091E30080688093E3001111E1
:1021C00002C082E001C083E08093DC0186C08058B9
:1021D000823008F082C08091DF019091E0018C3D57
:1021E00053E0950779F583E08A838AE289834FB7C4
:1021F000F894DE01139620E03EE051E2E32FF0E098
:1022000050935700E49120FF03C0E295EF703F5FC9
:10221000EF708E2F90E0EA3010F0C79601C0C096A4
:102220008D939D932F5F243149F74FBF8091E80034
:10223000877F8093E8006AE270E0CE0101960E94F9
:10224000520D14C0AE014F5F5F4F6091E1010E94DB
:10225000990CBC01892B09F440C09091E800977F4C
:102260009093E80089819A810E94B30D8091E800E3
:102270008B778093E80031C0803879F58091E80051
:10228000877F8093E8008091D8018093F10080914E
:10229000E8008E778093E8000E94470E1EC08111EF
:1022A0001CC09091DF019230C0F48091E800877FDC
:1022B0008093E8009093D8010E94470E8091D80146
:1022C000811106C08091E30087FD02C081E001C05A
:1022D00084E08093DC010E94660B8091E80083FF1C
:1022E0000AC08091E800877F8093E8008091EB002E
:1022F00080628093EB00AA960FB6F894DEBF0FBE03
:10230000CDBFDF91CF911F91089590936801809385
:1023100067010895E0916701F0916801309721F01D
:102320000190F081E02D099480E00895EF92FF92F2
:102330000F931F93CF93DF93E0916701F0916801B2
:102340003097B1F18C010280F381E02D09958091E5
:10235000C70182FF2DC080FF04C08DEA95E00E9476
:102360002707E80110E187EAE82E85E0F82E809142
:10237000C70180FF0BC088811F928F93FF92EF925D
:102380000E94C0070F900F900F900F901150219650
:102390001111EDCF8091C70180FF0AC085EA95E059
:1023A000DF91CF911F910F91FF90EF900C94270731
:1023B000DF91CF911F910F91FF90EF900895E091E1
:1023C0006701F0916801309721F00480F581E02DDC
:1023D0000994089520916501309166018217930751
:1023E00071F09093660180936501E0916701F0912F
:1023F0006801309721F00680F781E02D0994089557
:1024000020916301309164018217930771F09093DA
:10241000640180936301E0916701F0916801309756
:1024200021F00084F185E02D0994089508950C941D
:1024300016120E94611E0E9437080C9480204F9251
:102440005F927F928F929F92AF92BF92CF92DF92D4
:10245000EF92FF920F931F93CF93DF9300D000D0A2
:102460001F92CDB7DEB70E9457089AE6C92E91E0B9
:10247000D92E00E010E0AA24A394B12C702E802F56
:102480000E9474094C01F601419051906F01482659
:10249000592641145104B1F40F5F1F4F0530110547
:1024A00069F78FEF89838A831B820E946A1E81608D
:1024B000782F9D838C8349815A816B818D810E9405
:1024C000F21241C08091C70181FD0E947D0920E088
:1024D00030E07501022E02C0EE0CFF1C0A94E2F7F8
:1024E000C70184219521892B41F129837A828E208D
:1024F0009F2091E0892809F490E09B830E946A1E46
:102500008160782F9D838C8349815A816B818D8175
:102510000E94F21249815A816B817C818D810E94D7
:10252000E21D000F111FF801E659FE4F80819181D5
:10253000E826F926F182E08206C02F5F3F4F2E3059
:10254000310539F6A9CF0E94E11D0E940A2410919D
:1025500069010E948A11181771F10E948A118093F3
:1025600069019091C70192FF0EC090FF0CC01F92AD
:102570008F938FEB95E09F938F930E94C0070F90EE
:102580000F900F900F90809169010F900F900F9016
:102590000F900F90DF91CF911F910F91FF90EF90CF
:1025A000DF90CF90BF90AF909F908F907F905F9083
:1025B0004F900C94F31D0F900F900F900F900F9071
:1025C000DF91CF911F910F91FF90EF90DF90CF900F
:1025D000BF90AF909F908F907F905F904F900895A5
:1025E0000C94C409CF93DF93CDB7DEB72B970FB60A
:1025F000F894DEBF0FBECDBF942F4F83252F588791
:1026000069877A878B874A855B85452B21F02F3F29
:1026100009F59F3FF9F4DE01119686E0FD01119264
:102620008A95E9F785E0FE01379601900D928A952B
:10263000E1F749815A816B817C818D819E810E9465
:10264000161A2B960FB6F894DEBF0FBECDBFDF91E2
:10265000CF9108954F81588569857A858B850E9431
:10266000E21DD9CFCF93882309F4CDC0C82F82387B
:1026700059F40E948A1181FDC6C089E30E94A11C01
:102680000E94861D89E30CC0833879F40E948A1168
:1026900080FDB9C083E50E94A11C0E94861D83E5D0
:1026A0000E94F41CCF910C94861D843859F40E942A
:1026B0008A1182FDA8C087E40E94A11C0E94861D89
:1026C00087E4EECF8CEF8C0F813A48F48C2F0E9478
:1026D0008A28811198C08C2F0E94A11CE3CF80E230
:1026E0008C0F883048F4C77081E001C0880FCA950C
:1026F000EAF70E944C1DD6CF8BE58C0F833078F41F
:10270000C53A29F0C63A31F083E890E005C081E887
:1027100090E002C082E890E0CF910C94EA1188E545
:102720008C0F853108F06FC0C83A61F1C93A69F180
:10273000CA3A71F1CB3A79F1CC3A81F1CD3A89F1CB
:10274000CE3A91F1CF3A99F1C13BA1F1C03BA9F149
:10275000C23BB1F1C33BB9F1C43BC1F1C53BC9F1C7
:10276000C63BD1F1C73BD9F1C83BE1F1C93BE9F127
:10277000CA3BF1F1CB3BF9F1CC3B09F43FC080E01F
:1027800090E03EC082EE90E03BC089EE90E038C021
:102790008AEE90E035C085EB90E032C086EB90E0A9
:1027A0002FC083EB90E02CC084EB90E029C087EB36
:1027B00090E026C08CEC90E023C08DEC90E020C02F
:1027C00083E891E01DC08AE891E01AC082E991E0B7
:1027D00017C084E991E014C081E292E011C083E265
:1027E00092E00EC084E292E00BC085E292E008C065
:1027F00086E292E005C087E292E002C08AE292E0BF
:10280000CF910C940012CF910895882309F44BC006
:10281000823859F40E948A1181FF45C089E30E94E1
:10282000A11C0E94861D89E30CC0833871F40E94AC
:102830008A1180FF38C083E50E94A11C0E94861D7A
:1028400083E50E94F41C0C94861D843859F40E9480
:102850008A1182FF28C087E40E94A11C0E94861D65
:1028600087E4EFCF9CEF980F913A58F390E2980FDE
:10287000983050F4877091E001C0990F8A95EAF77B
:10288000892F0E94521DDFCF9BE5980F933020F4D3
:1028900080E090E00C94EA11885A853120F480E0C1
:1028A00090E00C9400120895882321F00E944C1DA2
:1028B0000C94861D0895882321F00E94521D0C94CB
:1028C000861D0895CF92DF92EF92FF920F931F9390
:1028D000CF93DF9300D000D000D0CDB7DEB725E096
:1028E000FC01DE01119601900D922A95E1F7FC01A1
:1028F00040813181F280258122952F70638174811E
:10290000672B09F4D8C23F3F19F44F3F09F4D3C2F3
:102910006C0149833A8389819A812E830E94601CCD
:10292000182F092F0E945F1C0E946F1BE02FE29559
:10293000EF70F0E0E25AFF4F2E810C94302B802F85
:10294000807F902F9F70092F882311F00295007FC0
:10295000FF2049F0002309F45FC2802F0E945F1D11
:102960000E94861D59C2812F0E940514002309F47C
:10297000A2C2802F0E94651D26960FB6F894DEBF76
:102980000FBECDBFDF91CF911F910F91FF90EF90C0
:10299000DF90CF900C94861D802F807F902F9F70AA
:1029A000092F803211F00295007F112319F01130A8
:1029B00001F129C0FF20A9F0802F222349F1213005
:1029C00039F526960FB6F894DEBF0FBECDBFDF9166
:1029D000CF911F910F91FF90EF90DF90CF900C94CB
:1029E0006F1D222319F0213009F465C20E94721D67
:1029F0002CC0FF20E9F0263008F05DC20E94491D7E
:102A0000802329F022C0FF20F1F0211115C0802F72
:102A100026960FB6F894DEBF0FBECDBFDF91CF91E3
:102A20001F910F91FF90EF90DF90CF900C94541472
:102A3000253008F040C209C0F601858180FFECC155
:102A40008F708583E4CF2111FBC1802F69C1202FB6
:102A500026952695237030E02115310521F021308F
:102A60003105C9F028C2FF2021F0812F902F9370EB
:102A700002C080E090E026960FB6F894DEBF0FBE4D
:102A8000CDBFDF91CF911F910F91FF90EF90DF901D
:102A9000CF900C94EA11FF2021F0812F902F93709A
:102AA00002C080E090E026960FB6F894DEBF0FBE1D
:102AB000CDBFDF91CF911F910F91FF90EF90DF90ED
:102AC000CF900C940012812FFF2019F00E949022C9
:102AD00002C00E94F82226960FB6F894DEBF0FBE01
:102AE000CDBFDF91CF911F910F91FF90EF90DF90BD
:102AF000CF900C947D23802F837009F078C0F11063
:102B0000DAC1812F829586958770880F880F912F63
:102B10009F70C92ED12CE12CF12C082E04C0CC0CB6
:102B2000DD1CEE1CFF1C0A94D2F714FF12C04FE00C
:102B300050E060E070E004C0440F551F661F771F2F
:102B40008A95D2F7CB01BA016095709580959095E2
:102B500003C060E070E0CB01202F269526952370FE
:102B6000422F50E042305105D1F04330510559F128
:102B70006C297D298E299F294130510541F12696E6
:102B80000FB6F894DEBF0FBECDBFDF91CF911F917E
:102B90000F91FF90EF90DF90CF900C94841B6C29E5
:102BA0007D298E299F2926960FB6F894DEBF0FBE89
:102BB000CDBFDF91CF911F910F91FF90EF90DF90EC
:102BC000CF900C94961B0E94841BC701B6012696D9
:102BD0000FB6F894DEBF0FBECDBFDF91CF911F912E
:102BE0000F91FF90EF90DF90CF900C94721BFF201D
:102BF00019F0802F817001C08695882309F45BC18C
:102C0000812F829586958770880F880F912F9F70EE
:102C1000C92ED12CE12CF12C082E04C0CC0CDD1CCB
:102C2000EE1CFF1C0A94D2F714FF12C04FE050E0D4
:102C300060E070E004C0440F551F661F771F8A953F
:102C4000D2F7CB01BA01609570958095909503C03D
:102C500060E070E0CB01202F269526952370422F4F
:102C600050E042305105D1F04330510559F16C2903
:102C70007D298E299F294130510541F126960FB6B5
:102C8000F894DEBF0FBECDBFDF91CF911F910F91A2
:102C9000FF90EF90DF90CF900C943B1C6C297D2926
:102CA0008E299F2926960FB6F894DEBF0FBECDBFA2
:102CB000DF91CF911F910F91FF90EF90DF90CF9018
:102CC0000C944D1C0E943B1CC701B60126960FB602
:102CD000F894DEBF0FBECDBFDF91CF911F910F9152
:102CE000FF90EF90DF90CF900C94291C103F41F1A2
:102CF00018F4103E48F48BC0123F09F450C0D8F1CC
:102D0000133F09F460C083C01F70802F8F71FF20B4
:102D100021F00E94C21B812F7BCE0E94E31B812FDA
:102D200026960FB6F894DEBF0FBECDBFDF91CF91D0
:102D30001F910F91FF90EF90DF90CF900C945B1458
:102D4000FF20A9F0253008F0B6C0802F8F7126969D
:102D50000FB6F894DEBF0FBECDBFDF91CF911F91AC
:102D60000F91FF90EF90DF90CF900C94081C2630CD
:102D700008F0A1C0EACFFF20A1F0802F8F71269626
:102D80000FB6F894DEBF0FBECDBFDF91CF911F917C
:102D90000F91FF90EF90DF90CF900C94C21BFF201B
:102DA00061F3802F8F7126960FB6F894DEBF0FBEA9
:102DB000CDBFDF91CF911F910F91FF90EF90DF90EA
:102DC000CF900C94E31BFF2091F0802F8F712696FB
:102DD0000FB6F894DEBF0FBECDBFDF91CF911F912C
:102DE0000F91FF90EF90DF90CF900C94AD1B269643
:102DF0000FB6F894DEBF0FBECDBFDF91CF911F910C
:102E00000F91FF90EF90DF90CF900C94A81BFF20C4
:102E1000A1F0222309F4B1CF812F26960FB6F894A2
:102E2000DEBF0FBECDBFDF91CF911F910F91FF90FD
:102E3000EF90DF90CF900C943213222309F4B1CF9E
:102E4000812F26960FB6F894DEBF0FBECDBFDF915F
:102E5000CF911F910F91FF90EF90DF90CF900C9446
:102E60000514402F4F70612FC6010E94C907269696
:102E70000FB6F894DEBF0FBECDBFDF91CF911F918B
:102E80000F91FF90EF90DF90CF900C94BA1A402FE3
:102E90004F70612FC60126960FB6F894DEBF0FBEA5
:102EA000CDBFDF91CF911F910F91FF90EF90DF90F9
:102EB000CF900C94252026960FB6F894DEBF0FBE57
:102EC000CDBFDF91CF911F910F91FF90EF90DF90D9
:102ED000CF9008950E946C1D0E943B1D0E94861D8C
:102EE0000E94AF240E947D2380E090E00E94EA11BE
:102EF00080E090E00C9400120E945C1D0C946A1714
:102F00000E94601C292F22952F7030E02C30310553
:102F10004CF42A3031056CF422503109223031054D
:102F200088F407C02C30310549F02F30310531F0DD
:102F300009C0803E48F0803F29F406C093FB8827F3
:102F400080F9089580E0089581E00895CF93DF939C
:102F500000D000D01F92CDB7DEB70F900F900F902A
:102F60000F900F90DF91CF910895CF93DF9300D012
:102F700000D000D0CDB7DEB726960FB6F894DEBFEE
:102F80000FBECDBFDF91CF9108951F93CF93DF93F5
:102F9000C091740116E080917501C81799F0D0E0D6
:102FA0001C9FF0011D9FF00D1124EA58FE4F408137
:102FB000518162817381848195810E94B517219628
:102FC000C770E9CFDF91CF911F9108954091A6017D
:102FD0005091A7016091A8017091A9018091AA0167
:102FE0009091AB010C94B5178091AB0182958F70D5
:102FF00009F054C08091A801882309F44FC0809142
:103000007401A09175016091A6017091A701409192
:10301000A9015091AA01B6E08A1709F43FC090E0D7
:1030200041155105C1F17F3F11F46F3FA1F1B89FE8
:10303000F001B99FF00D1124EA58FE4F218172135F
:103040002AC02081621327C02281211124C023813C
:1030500034812417350710F421503109241B350B16
:10306000283C3105C0F42091AB012F7020612093E2
:10307000AB0126E0289FF001299FF00D1124E558AF
:10308000FE4F80818F708061808386EA91E00E948C
:1030900062140C94C51701968770BECF0895CF9225
:1030A000DF92EF92FF920F931F93CF93DF93CDB7F1
:1030B000DEB762970FB6F894DEBF0FBECDBF8C01AE
:1030C00085E0F801DE011D9601900D928A95E1F7E9
:1030D000D8014C9111965C91119712966C911297B0
:1030E0001396CD90DC9014973091A6017091A701B2
:1030F0008091A9019091AA01009709F46BC17F3FCB
:1031000019F43F3F09F466C1E090A801EE2009F4EC
:10311000C0C02091AB01C816D90628F0F601E81B03
:10312000F90BCF0104C0809590958C0D9D1DFF2457
:10313000F394883C910578F0F12C207F09F0C6C00B
:103140007C2DD98AC88A89890E94A61786EA91E0CF
:103150000E946214B1C0822F807F09F046C07513AF
:1031600014C0341312C0611110C02F70206120935D
:10317000AB010E94E61786EA91E00E9462148091FA
:10318000AB01D80115968C932EC0CD2819F15F3F65
:1031900011F44F3FF9F0F62E61111CC080917401BB
:1031A0002091750136E0821709F45AC090E0389FEB
:1031B000F001399FF00D1124EA58FE4F7181571329
:1031C00006C07081471303C07281711103C001965C
:1031D0008770E9CFF62E662309F418C18091AB0100
:1031E00081608093AB01F12C11C1751308C03413B9
:1031F00006C0611104C08091AB01D801C3C04D87E6
:103200005E878D859E856A8B0E9480176A898823D8
:10321000E1F16623D1F12091AB01822F82958F706D
:1032200090E0029774F08091A6019091A701988791
:103230008F831986DB86CA862C87CE0107960E946B
:10324000621486E0F801A6EAB1E001900D928A9539
:10325000E1F70E94F4170E94E617FF24F394D6C00A
:103260004D875E878D859E850E94601C292F229543
:103270002F7030E0223031050CF0BCC09F7009F097
:10328000B6C0805E883008F4C1C0C8010E946214D4
:10329000E4CFC816D90608F453C0F601E81BF90BB1
:1032A000CF01883C910508F450C0F12C7C2DD98ABF
:1032B000C88A89890E94A617E6EAF1E086E0DF0164
:1032C0001D928A95E9F70E94E617A0C0751314C0F5
:1032D000341312C0611110C08091AB01F8018583D5
:1032E000C8010E94621486E0E6EAF1E0DF011D9267
:1032F0008A95E9F7FE2C8AC04D875E878D859E856D
:103300006A8B0E9480176A89882309F4BECF6623DE
:1033100009F4BBCF2091AB01822F82958F7090E092
:1033200002970CF48ECF8091A6019091A7019A8309
:1033300089831B82DD82CC822E83CE0101967FCFD2
:10334000809590958C0D9D1DACCFF62E662309F4CB
:103350009CCF75132EC034132CC02091AB0120FDDF
:103360001FC0822F82958F70D9F0D80115962C93AB
:1033700015978F3049F08F5F982F9295907F822F0D
:103380008F70892B15968C93C8010E94621486E079
:10339000F801A6EAB1E001900D928A95E1F793CF8A
:1033A00086E0F801A6EAB1E001900D928A95E1F776
:1033B0002DC04D875E878D859E850E948017811167
:1033C00040CF8091AB0181608093AB01C8010E9426
:1033D00062141CC0662309F458CF4D875E878D8523
:1033E0009E850E948017882309F44FCF2ACF811130
:1033F00048CF0CC0243031050CF047CF9F7009F442
:1034000040CFF8019581907F09F03BCF8F2D6296D8
:103410000FB6F894DEBF0FBECDBFDF91CF911F91E5
:103420000F91FF90EF90DF90CF9008951F93CF936F
:10343000DF93CDB7DEB72C970FB6F894DEBF0FBE83
:10344000CDBF4F83588769877A878B879C87CE014A
:1034500007960E944F18882369F08F8198852A85E6
:103460003B85232BF1F19F3F09F063C08F3F09F0AB
:1034700060C037C086E0FE013796DE0111960190EC
:103480000D928A95E1F76F817885EA85FB85309703
:1034900041F17F3F11F46F3F21F12091750130E040
:1034A000C9010196877099274091740150E08417F3
:1034B000950709F447C069837A83FD83EC8396E01E
:1034C000929FD001939FB00D1124AA58BE4FFE01C8
:1034D000319601900D929A95E1F7809375010E94C3
:1034E000C51716E080917401909175018917C1F19B
:1034F000189FC00111248A589E4F0E944F1888239C
:1035000079F1E09174011E9FF0011124EA58FE4FF9
:103510004081518162817381848195810E94B517B8
:103520008091740190E001968770992780937401CF
:10353000D9CF4F81588569857A858B859C850E9476
:10354000B517CFCF0E947C171092750110927401AD
:10355000E6EAF1E086E0DF011D928A95E9F7C1CF46
:103560002C960FB6F894DEBF0FBECDBFDF91CF9182
:103570001F910895DF92EF92FF920F931F93CF93C5
:10358000DF93FC01892B09F48AC0E12CF12CDD24A6
:10359000D394EF0121968491853709F461C058F4E2
:1035A000843708F04EC0843008F06AC08130D1F012
:1035B000823071F174C0883709F45DC050F48637E9
:1035C00009F455C0873709F06AC08E2D0E94591D35
:1035D00054C09CE7980F903708F061C08F770E9425
:1035E000051450C08F010E5F1F4FFE01849190E2C1
:1035F000980F983050F48770FD2D01C0FF0F8A9509
:10360000EAF78F2F0E945F1D14C00E94321313C06F
:103610008F010E5F1F4FFE01C49180E28C0F883036
:1036200060F4C7708D2D01C0880FCA95EAF70E941B
:10363000651D0E94861DE80125C08C2F0E9405147F
:10364000FACF9F012E5F3F4FFE01C491CC2369F05A
:103650008FE99FE00197F1F700C00000C150F6CF5D
:103660009F012E5F3F4FFE01F490E9010BC00E94C5
:10367000491DE82E07C00E945C1D0E94861D02C0E5
:103680000E9432138F2D882341F0EFE9FFE031973C
:10369000F1F700C000008150F6CFFE017ACFDF9134
:1036A000CF911F910F91FF90EF90DF90089560935D
:1036B000B0017093B1018093B2019093B3010E9465
:1036C000F11D0C946A176093AC017093AD01809367
:1036D000AE019093AF010E94F21D0C946A170895F9
:1036E0000C94571B0F931F930091B0011091B101DF
:1036F0002091B2013091B301602B712B822B932B5F
:103700001F910F910C94571B0F931F930091B001C1
:103710001091B1012091B2013091B3016023712366
:10372000822393231F910F910C94571B0F931F9388
:103730000091B0011091B1012091B2013091B3011B
:1037400060277127822793271F910F910C94571B95
:1037500060E070E0CB010C94631B0F931F9341E07A
:1037600050E060E070E08A019B0104C0000F111F6F
:10377000221F331F8A95D2F7C901B8011F910F91FB
:103780000C94631B0F931F9341E050E060E070E0E6
:1037900004C0440F551F661F771F8A95D2F780918A
:1037A000AC019091AD01A091AE01B091AF018A0141
:1037B0009B01082B192B2A2B3B2BC901B8011F9108
:1037C0000F910C94631B0F931F9341E050E060E056
:1037D00070E004C0440F551F661F771F8A95D2F70B
:1037E00040955095609570958091AC019091AD0198
:1037F000A091AE01B091AF018A019B01082319236A
:103800002A233B23C901B8011F910F910C94631B1C
:103810000F931F9341E050E060E070E004C0440F5C
:10382000551F661F771F8A95D2F78091AC01909142
:10383000AD01A091AE01B091AF018A019B010827B3
:1038400019272A273B27C901B8011F910F910C9412
:10385000631B0F931F930091AC011091AD01209158
:10386000AE013091AF01602B712B822B932B1F91F6
:103870000F910C94631B0F931F930091AC01109157
:10388000AD012091AE013091AF01602371238223FD
:1038900093231F910F910C94631B0F931F9300911F
:1038A000AC011091AD012091AE013091AF016027C4
:1038B0007127822793271F910F910C94631B089502
:1038C000CF92DF92EF92FF920F931F93CF93DF93EC
:1038D0008C01C090B001D090B101E090B201F090A5
:1038E000B3014091AC015091AD016091AE01709176
:1038F000AF01C42AD52AE62AF72ACFE1D0E0D701C2
:10390000C6010C2E04C0B695A795979587950A9485
:10391000D2F780FF07C0B8018C2F0E94B21F813000
:10392000910531F4219758F7B80180E00E94B21F49
:10393000DF91CF911F910F91FF90EF90DF90CF908B
:10394000089590910B01992321F090910C01911110
:1039500009C020910D0130910E01F90132969FEFBF
:1039600040E030C0982F9695969596959F30A0F49C
:10397000E0910D01F0910E01E90FF11D877021E03A
:1039800030E0A90102C0440F551F8A95E2F7CA0131
:103990009181892B818308959091C70190FF23C065
:1039A0001F928F9388EE95E09F938F930E94C0079C
:1039B0000F900F900F900F9008959F3F39F04F5F39
:1039C0004E3041F051915813F8CF0DC05111F7CF3F
:1039D000942FF5CF9F3F39F0F901E90FF11D97FDC5
:1039E000FA9582830895089590910B01992321F00F
:1039F00090910C01911109C020910D0130910E019F
:103A0000F9013296205F3F4F30C0982F96959695DA
:103A100096959F30A8F4E0910D01F0910E01E90F09
:103A2000F11D877021E030E0A90102C0440F551F4D
:103A30008A95E2F7CA01809591818923818308954F
:103A40009091C70190FF16C01F928F938AEC95E06A
:103A50009F938F930E94C0070F900F900F900F902D
:103A600008953196E217F30729F090819813F9CF62
:103A70001082F7CF089581E090E0E0910D01F09180
:103A80000E01E80FF91F1082019680319105A9F708
:103A900008958091C60108959091C601892B809365
:103AA000C601089580959091C60189238093C6012F
:103AB00008958093C60108951092C60108959091CB
:103AC000C501892B8093C501089580959091C5010A
:103AD00089238093C50108951092C50108958093AC
:103AE000B40108951092B401089580910D01909150
:103AF0000E01FC0131969C01205F3F4F80E09191C7
:103B000091118F5FE217F307D1F70895E0910D014E
:103B1000F0910E018091C6018083E0910D01F0913A
:103B20000E0190818091C501892B80838091B40121
:103B3000882361F0E0910D01F0910E019081892BB5
:103B400080830E94751D81111092B40180910D0136
:103B500090910E010C949611909339018093380145
:103B600008958295982F9C7C392F36953695282F6D
:103B7000237344E0249FC0011124932F982B292FF5
:103B80002A7A2695892F8575880F822B08951F9391
:103B9000CF93DF931F92CDB7DEB799830E94B11DFB
:103BA000182F9981892F0E94B11D212F30E0322FCB
:103BB0002227A901482BCA010F90DF91CF911F91B5
:103BC00008950895CF93DF9300D000D01F92CDB712
:103BD000DEB70F900F900F900F900F90DF91CF9165
:103BE0000895089508950C94F01208958091DC01D1
:103BF000843021F11092C80120E488E190E00FB6F2
:103C0000F894A895809360000FBE2093600083B75E
:103C1000817F846083BF83B7816083BF78948895F8
:103C200083B78E7F83BF0FB6F894A895809160000C
:103C3000886180936000109260000FBE089508951F
:103C40000895CF930E941F1E0E9457080E94201EB5
:103C5000C0E08C2F0E947409892B29F4CF5FC530F6
:103C6000C1F780E001C081E0CF9108950C947C17EA
:103C70001F920F920FB60F9211248F939F93AF93C1
:103C8000BF938091C801811113C08091C9019091A7
:103C9000CA01A091CB01B091CC014196A11DB11DEB
:103CA0008093C9019093CA01A093CB01B093CC013A
:103CB000BF91AF919F918F910F900FBE0F901F906A
:103CC000189582E084BD93E095BD9AEF97BD8093EF
:103CD0006E0008952FB7F8948091C9019091CA01A0
:103CE000A091CB01B091CC012FBF08952FB7F894CC
:103CF0006091C9017091CA018091CB019091CC0172
:103D00002FBF0895CF92DF92EF92FF920F931F93F0
:103D10002FB7F8944091C9015091CA016091CB012D
:103D20007091CC012FBF6A017B01EE24FF248C012E
:103D300020E030E0C016D106E206F30610F4415050
:103D400051099A01281B390BC9011F910F91FF904E
:103D5000EF90DF90CF9008951F920F920FB60F92C1
:103D600011248F939F93AF93BF938091C90190913A
:103D7000CA01A091CB01B091CC010196A11DB11D4A
:103D80008093C9019093CA01A093CB01B093CC0159
:103D9000BF91AF919F918F910F900FBE0F901F9089
:103DA00018950E94980EF8942FEF87EA91E621501B
:103DB00080409040E1F700C0000087E090EBDC011C
:103DC0008093E6019093E701A093E801B093E901A5
:103DD0009CE088E10FB6F894A895809360000FBE30
:103DE00090936000FFCF8D3B50F4883A70F5853A90
:103DF00018F58430F8F4813009F46CC068C0883E4E
:103E000098F4803EB8F48F3B09F061C00E947C17A3
:103E10002FEF80E792E0215080409040E1F700C012
:103E200000000E94D11E53C0803F08F450C090E0B3
:103E30009065089590E00895853A09F44EC0863A59
:103E400009F44EC083E890E40895883A09F44BC021
:103E5000893A09F44BC08A3A09F44BC08B3A09F409
:103E60004BC08C3A09F44BC08D3A09F44BC08E3AE2
:103E700009F44BC08F3A09F44BC0813B09F44BC0A5
:103E8000803B09F44BC0823B09F44BC0833B09F4EF
:103E90004BC0843B09F44BC0853B09F44BC0863BC7
:103EA00009F44BC0873B09F44BC0883B09F44BC075
:103EB000893B09F44BC08A3B09F44BC08B3B09F4A6
:103EC0004BC08C3B09F44BC080E094E4089580E043
:103ED00090E0089581E090E0089581E890E40895ED
:103EE00082E890E4089582EE94E4089589EE94E4E3
:103EF00008958AEE94E4089585EB94E4089586EBA2
:103F000094E4089583EB94E4089584EB94E4089595
:103F100087EB94E408958CEC94E408958DEC94E49C
:103F2000089583E895E408958AE895E4089582E980
:103F300095E4089584E995E4089581E296E408956E
:103F400083E296E4089584E296E4089585E296E497
:103F5000089586E296E4089587E296E408958AE259
:103F600096E408950E941808803EA8F4803C00F56D
:103F7000813309F45CC038F4893209F452C08A32C2
:103F800009F45BC05FC08933B1F08238A1F085339A
:103F900009F441C057C0833E41F128F4803E99F0B6
:103FA000823EB9F04FC0863E31F1873E71F14AC082
:103FB0000E94270808959091E50190FD02C091FFAD
:103FC00041C080EE3FC08091E50180FFFACF89E3D8
:103FD00039C08091E50182FF0CC08091E50184FF2A
:103FE00002C080E02FC083EE2DC08091E50182FFEA
:103FF000F4CF82EE27C08091E50183FF0AC0809153
:10400000E50184FDEECF87EE1DC08091E50183FFC1
:10401000F6CF86EE17C08091E50185FF06C089E2E4
:1040200011C08091E50185FFFACF85E30BC0809137
:10403000E50186FF06C08AE205C08091E50186FFA2
:10404000FACF81E30E94F31E08950895AF92BF92C4
:10405000CF92DF92EF92FF920F931F93CF937C0149
:10406000C0E0CC24C394D12C8C2F0E9474095C0135
:1040700000E010E0C601002E02C0880F991F0A94CC
:10408000E2F78A219B21892BB1F0602F7C2F80E001
:104090000E94B21F9C018E159F0559F0832F807ED0
:1040A000932F907C11F0803A31F430E02E153F05CB
:1040B00011F481E009C00F5F1F4F0E301105D1F6DA
:1040C000CF5FC53089F680E0CF911F910F91FF90AF
:1040D000EF90DF90CF90BF90AF900895CF93DF9394
:1040E000EC018CE290E00E942620882329F0CE018A
:1040F000DF91CF910C94262080E0DF91CF9108953D
:10410000CF930E94E821811102C00E94CE218DE050
:1041100096E00E942707C5E6C15049F00E94570863
:104120008FE39CE90197F1F700C00000F5CF86E02E
:1041300096E00E94270789E290E00E946E2081119C
:104140002BC18AE290E00E946E2081110E94CE2154
:1041500085E090E00E946E2081110E94D11E0E9495
:10416000F51D0E94F3218093C70187E090E00E9433
:104170006E208823C1F18BE190E00E946E2088239D
:1041800051F08091C70181FB222720F991E092270D
:1041900090FB81F90FC08EE090E00E946E20882392
:1041A00061F08091C70182FB222720F991E09227DC
:1041B00090FB82F98093C70116C080E190E00E94D5
:1041C0006E209091C701882341F093FB222720F9AC
:1041D00081E0822780FB93F904C0892F809580FBC2
:1041E00090F99093C7018091C7010E94F7210E9426
:1041F00005228093E50180EE90E00E946E208823E6
:1042000041F08091E501982F909590FB80F9809383
:10421000E50189E390E00E946E20882359F08091A7
:10422000E50181FB222720F991E0922790FB81F99B
:104230008093E50182EE90E00E946E20882359F081
:104240008091E50182FB222720F991E0922790FBE3
:1042500082F98093E50186EE90E00E946E2088232B
:1042600059F08091E50183FB222720F991E0922704
:1042700090FB83F98093E50183EE90E00E946E202D
:10428000882359F08091E50184FB222720F991E0F1
:10429000922790FB84F98093E50185E390E00E94EA
:1042A0006E20882359F08091E50185FB222720F9B3
:1042B00091E0922790FB85F98093E50181E390E0FE
:1042C0000E946E20882359F08091E50186FB222709
:1042D00020F991E0922790FB86F98093E50181E136
:1042E00090E00E946E20882359F08091E50187FBC1
:1042F000222720F991E0922790FB87F98093E5012E
:104300008091E5010E9409228091E50187FB8827C1
:1043100080F980930C0187E290E00E946E20C82F04
:104320008EE190E00E946E208111C2608FE190E0EA
:104330000E946E208111C46080E290E00E946E2095
:104340008111C86081E290E00E946E208111C061FD
:1043500082E290E00E946E208111C06283E290E0D0
:104360000E946E208111C06484E290E00E946E2061
:10437000882311F0C06802C0CC2329F08C2F0E9442
:1043800000226C2F03C00E94FC21682F70E080E0A7
:1043900090E0CF910C94701BCF9108956DEE7EEF5D
:1043A00080E090E00E94692B60E082E090E00E9453
:1043B0005B2B60E083E090E00E945B2B60E084E098
:1043C00090E00E945B2B60E085E090E00C945B2B1A
:1043D00080E090E00E94552B21E08D3E9E4F09F039
:1043E00020E0822F089582E090E00C944D2B682FFE
:1043F00082E090E00C945B2B83E090E00C944D2BDA
:10440000682F83E090E00C945B2B84E090E00C94A8
:104410004D2B682F84E090E00C945B2B8091CF01B2
:1044200080FF0BC06091120185E0689FB0011124EC
:1044300075956795759567952BC081FF09C060914B
:10444000120185E0689FB00111247595679520C021
:1044500082FF07C06091120185E0689FB0011124BE
:1044600017C09091D0019923D1F060911101961756
:1044700088F72091120185E0289F90011124929FD6
:10448000A001939F500D112470E0CA010E941C2BC3
:104490006038710540F46115710539F002C065E0BE
:1044A00070E0862F08958FE7089581E00895809148
:1044B000CF0180FF08C06091100170E0759567958D
:1044C0007595679521C081FF06C06091100170E06D
:1044D0007595679519C082FF04C06091100170E066
:1044E00010C09091D0019923C1F060910F019617EF
:1044F000A0F780911001899FC001112470E00E94F3
:104500001C2B6038710528F46115710521F0862F88
:1045100008958FE7089581E0089561E070E0F4CF99
:10452000803F21F40E940E22819504C0813F29F42E
:104530000E940E228093D3010895823F21F40E94AD
:104540000E22819504C0833F29F40E940E2280939D
:10455000D2010895893F19F40E94572205C08A3F6D
:1045600031F40E94572281958093D40108958B3FA6
:1045700021F40E945722819504C08C3F29F40E94A7
:1045800057228093D5010895843F21F48091D10171
:10459000816017C0853F21F48091D101826011C0F4
:1045A000863F21F48091D10184600BC0873F21F4C4
:1045B0008091D101886005C0883F31F48091D1019C
:1045C00080618093D10108958D3F21F48091CF01C6
:1045D00081600BC08E3F21F48091CF01826005C0C5
:1045E0008F3F29F48091CF0184608093CF0108959B
:1045F000803F39F48091D30187FF6CC01092D301C2
:1046000069C0813F29F48091D3011816BCF362C0C0
:104610009091D201823F29F497FF5CC01092D201A1
:1046200059C0833F19F41916CCF354C0893F41F4A3
:104630008091D40118160CF04DC01092D4014AC0DC
:104640008A3F29F48091D40187FF44C0F6CF8B3F85
:1046500039F48091D50187FF3DC01092D5013AC051
:104660008C3F29F48091D5011816BCF333C0843FE8
:1046700021F48091D1018E7F17C0853F21F4809174
:10468000D1018D7F11C0863F21F48091D1018B7FB4
:104690000BC0873F21F48091D101877F05C0883FFF
:1046A00031F48091D1018F7E8093D10113C08D3F71
:1046B00021F48091CF018E7F0BC08E3F21F4809139
:1046C000CF018D7F05C08F3F29F48091CF018B7F73
:1046D0008093CF018091D20181110EC08091D301CE
:1046E00081110AC08091D401811106C08091D50149
:1046F000811102C01092D00108958091C70183FFFB
:104700007EC089E496E00E9427078091D1011F9224
:104710008F9384E496E09F938F930E94C00782E476
:1047200096E00E9427078091D201282F082E000CC6
:10473000330B3F938F938FE396E09F938F930E9469
:10474000C0078DE396E00E9427078091D301282FB0
:10475000082E000C330B3F938F938AE396E09F93D0
:104760008F930E94C00788E396E00E9427078091FC
:10477000D401282F082E000C330B3F938F9385E331
:1047800096E09F938F930E94C00783E396E00E9478
:1047900027078091D501282F082E000C330B3F935B
:1047A0008F9380E396E09F938F930E94C0078DE2E2
:1047B00096E00E9427078091D0011F928F938AE292
:1047C00096E09F938F930E94C00788E296E00E9434
:1047D00027078091CF011F928F9385E296E09F93E8
:1047E0008F930E94C00782E296E00E9427078DB750
:1047F0009EB74C960FB6F8949EBF0FBE8DBF81ED4D
:1048000091E00E94DF110E946A1E9093CE01809376
:10481000CD0108951F93CF93DF938091CD019091A7
:10482000CE010E94821EAC019091D001992321F00B
:104830002091130130E006C0209114018AE0289FE6
:10484000900111244217530708F485C08091D201CA
:10485000C091D301D091D4011091D501811107C02D
:10486000C11175C0D11173C0111171C074C09F3FC7
:1048700019F09F5F9093D001181624F40E940E2225
:104880008093D2018091D20187FF05C00E940E2241
:1048900081958093D2011C1624F40E940E228093ED
:1048A000D3018091D30187FF05C00E940E2281951C
:1048B0008093D3016091D201662331F1C091D3017D
:1048C000CC2311F1062E000C770B880B990B0E945C
:1048D000172A23E333E343E35FE30E947B2A0E942A
:1048E000DF296093D2016C2FCC0F770B880B990BCB
:1048F0000E94172A23E333E343E35FE30E947B2A0A
:104900000E94DF296093D3011D1624F40E945722D0
:104910008093D4018091D40187FF05C00E94572263
:1049200081958093D401111624F40E94572280931C
:10493000D5018091D50187FF05C00E94572281953E
:104940008093D501DF91CF911F910C947D239F3FE0
:1049500009F08FCF97CFDF91CF911F910895E1EDAF
:10496000F1E085E0DF011D928A95E9F71092D00110
:104970001092CF0108958CE698E00E9427071F92BD
:1049800081E08F931F9285E08F938EE198E09F9353
:104990008F930E94C0070F900F900F900F900F9071
:1049A0000F9008958330E9F128F4813061F082306E
:1049B00009F10895853009F462C008F449C08630D1
:1049C00009F474C0089580911401262F30E0280F57
:1049D000311D2F3F310524F4680F6093140103C08B
:1049E0008FEF80931401809114011F928F9387E5BC
:1049F00097E072C080911301262F30E0280F311DFF
:104A00002F3F310524F4680F6093130103C08FEF2B
:104A100080931301809113011F928F9385E497E097
:104A20005BC080911201262F30E0280F311D2F3FEF
:104A3000310524F4680F6093120103C08FEF809357
:104A40001201809112011F928F9382E397E044C07C
:104A500080911101262F30E0280F311D2F3F3105A5
:104A600024F4680F6093110103C08FEF809311014C
:104A7000809111011F928F938DE197E02DC080915D
:104A80001001262F30E0280F311D2F3F310524F46F
:104A9000680F6093100103C08FEF80931001809125
:104AA00010011F928F9384E097E016C080910F0150
:104AB000262F30E0280F311D2F3F310524F4680FD9
:104AC00060930F0103C08FEF80930F0180910F015E
:104AD0001F928F9389EE96E09F938F930E94C00759
:104AE0000F900F900F900F900895833081F128F46C
:104AF000813059F08230D1F00895853009F449C0F1
:104B0000B8F1863009F456C00895809114016817F1
:104B100020F4861B8093140102C01092140180912E
:104B200014011F928F938AED96E054C08091130177
:104B3000681720F4861B8093130102C010921301A2
:104B4000809113011F928F9388EC96E043C080916F
:104B50001201681720F4861B8093120102C0109284
:104B60001201809112011F928F9385EB96E032C063
:104B700080911101681720F4861B8093110102C0F7
:104B800010921101809111011F928F9380EA96E09B
:104B900021C080911001681720F4861B80931001BA
:104BA00002C010921001809110011F928F9387E82C
:104BB00096E010C080910F01681720F4861B809347
:104BC0000F0102C010920F0180910F011F928F936D
:104BD0008CE696E09F938F930E94C0070F900F90F2
:104BE0000F900F900895CF93C82F1F928F9381E756
:104BF00099E09F938F930E94C00781E090E0A0E02E
:104C0000B0E0BC01CD0104C0660F771F881F991F5B
:104C1000CA95D2F70E94701B0F900F900F900F90C3
:104C2000CF910C947C17CF938B3109F4CBC108F052
:104C300049C08E3009F4DAC100F5873009F4A9C102
:104C4000A8F4863009F05AC28091C701817F8E7F17
:104C50008093C70186E799E00E94270780E99DE0DD
:104C60000E94270781E08093D70191C1883009F421
:104C70005BC08B3009F487C141C2813109F426C27F
:104C800020F4803109F4C6C139C2863109F4DDC18E
:104C9000893109F033C284E09DE00E9427078DEE40
:104CA0009CE00E94270783EB9CE00E9427078CE88A
:104CB0009CE00E94270787E49CE00E94270788E188
:104CC0009CE063C1853309F413C268F4873209F4A8
:104CD0000FC228F48E3108F411C28D510CC28932F2
:104CE00009F406C20BC2833438F48A3308F002C2D6
:104CF000883309F448C102C2833409F4F9C1883405
:104D000009F0FCC10E947C178FE79DE00E942707F5
:104D10009FEF23ED80E3915020408040E1F700C0F9
:104D200000000E94D11E33C184E99DE00E94270744
:104D300085E79BE00E9427070E94FC211F928F932A
:104D400082E79BE09F938F930E94C00780E79BE0E0
:104D50000E9427070E94F321C82F8DE59BE00E9447
:104D600027071F92CF9388E59BE09F938F930E9424
:104D7000C00786E59BE00E9427078CE49BE00E9429
:104D800027078C2F81701F928F9389E49BE09F935C
:104D90008F930E94C00787E49BE00E9427078DE362
:104DA0009BE00E942707C1FB882780F91F928F9301
:104DB0008AE39BE09F938F930E94C00788E39BE068
:104DC0000E9427078CE29BE00E942707C2FB8827EE
:104DD00080F91F928F9389E29BE09F938F930E94AB
:104DE000C00787E29BE00E9427078EE19BE00E94BC
:104DF0002707C3FBCC27C0F91F92CF938BE19BE021
:104E00009F938F930E94C00789E19BE00E94270730
:104E10000E940522C82F85E09BE00E9427071F9271
:104E2000CF9380E09BE09F938F930E94C0078EEF0B
:104E30009AE00E94270785EE9AE00E9427078C2FB0
:104E400081701F928F9382EE9AE09F938F930E94BE
:104E5000C0078DB79EB780960FB6F8949EBF0FBE61
:104E60008DBF80EE9AE00E94270789EC9AE00E94AD
:104E70002707C1FB882780F91F928F9386EC9AE061
:104E80009F938F930E94C00784EC9AE00E942707AB
:104E900082EB9AE00E942707C2FB882780F91F92C5
:104EA0008F938FEA9AE09F938F930E94C0078DEAB9
:104EB0009AE00E9427078BE99AE00E942707C3FB2C
:104EC000882780F91F928F9388E99AE09F938F93A8
:104ED0000E94C00786E99AE00E9427078CE89AE0C2
:104EE0000E942707C4FB882780F91F928F9389E8C7
:104EF0009AE09F938F930E94C00787E89AE00E94F0
:104F0000270785E79AE00E942707C5FB882780F9D5
:104F10001F928F9382E79AE09F938F930E94C0071E
:104F200080E79AE00E94270784E59AE00E9427071D
:104F3000C6FB882780F91F928F9381E59AE09F93A3
:104F40008F930E94C0078FE49AE00E94270787E4AE
:104F50009AE00E942707C7FBCC27C0F91F92CF9386
:104F600084E49AE09F938F930E94C00782E49AE0C2
:104F70000E9427078DB79EB74C960FB6F8949EBF38
:104F80000FBE8DBF04C08DE999E00E942707C1E0E4
:104F9000BAC08091C701C82FC17080FF09C082E7E5
:104FA0009DE00E9427078091C701817F8E7F47C0C7
:104FB00086E69DE00E9427078091C701816080936B
:104FC000C701E5CF9091C70191FBCC27C0F981E0E3
:104FD000C827892FC0FB81F98093C701CC2319F022
:104FE00089E59DE027C08BE49DE0CFCF9091C7017C
:104FF00092FBCC27C0F981E0C827892FC0FB82F93A
:105000008093C701CC2319F08CE39DE013C08CE2A0
:105010009DE0BBCF9091C70193FBCC27C0F981E005
:10502000C827892FC0FB83F98093C701CC2351F097
:1050300080E29DE00E9427078091C70181608093F4
:10504000C70161C083E19DE0A0CF8AE09CE00E949F
:1050500027070E948A111F928F9380EF9BE09F93F6
:105060008F930E94C00780910B011F928F9389ED4F
:105070009BE09F938F930E94C007809162011F92D3
:105080008F9386EC9BE09F938F930E94C007809143
:105090000C011F928F9383EB9BE09F938F930E9451
:1050A000C0070E94761E9F938F937F936F938CE926
:1050B0009BE09F938F930E94C0078DB79EB7469643
:1050C0000FB6F8949EBF0FBE8DBF61CF0E947C17B4
:1050D000C0910C0181E0C827C0930C01CC2329F0BA
:1050E00082E99BE00E9427070EC087E89BE04DCF36
:1050F00080E001C089530E94F32549CF85E89BE0F9
:105100000E942707C0E08C2FCF91089580E008957A
:1051100080E00895CF93C82F8091D701813071F03E
:1051200020F0823009F44BC042C1E0910D01F091B2
:105130000E018081823209F03CC107C0E0910D016F
:10514000F0910E018081823261F48C2F0E948628BA
:10515000811104C08C2F0E9413262FC081E090E0A3
:105160002CC08C2F0E948828811126C0C431E1F008
:1051700070F4CB3081F0C031D1F40E94BB2489E6B9
:1051800099E00E94270782E08093D70115C0C932B9
:1051900059F0C83361F486E799E00E9427078DE64D
:1051A00099E00E94270708C01092D70104C187E642
:1051B00099E00E942707FFC081E08170FEC0C432E1
:1051C00028F5CE3108F0C1C0CB30A1F1D0F4C73002
:1051D00009F0D3C08EE18093140182E38093130120
:1051E0008AE08093120184E18093110188E080932A
:1051F000100188E280930F018DE098E00E9427075C
:10520000BFC0C33149F1C431C1F0B7C0CB3409F4D8
:10521000A9C028F4C93289F0C83361F0AEC0C135E5
:1052200009F49EC0C23509F499C0CE3409F0A5C076
:105230006AE09EC00E94BB24A3C08091D60188234F
:1052400019F01092D6019CC08AE198E00E942707CD
:1052500081E08093D701B1C084EF97E00E942707D7
:1052600082EE97E00E942707809114011F928F938E
:105270008FED97E09F938F930E94C0078DED97E08D
:105280000E9427078BEC97E00E942707809113016B
:105290001F928F9388EC97E09F938F930E94C00793
:1052A00086EC97E00E94270787EB97E00E9427078C
:1052B000809112011F928F9384EB97E09F938F93BD
:1052C0000E94C00782EB97E00E94270781EA97E0DF
:1052D0000E942707809111011F928F938EE997E01A
:1052E0009F938F930E94C0078CE997E00E94270745
:1052F00087E897E00E942707809110011F928F9303
:1053000084E897E09F938F930E94C00782E897E01C
:105310000E9427078BE697E00E94270780910F01E4
:105320001F928F9388E697E09F938F930E94C00708
:1053300086E697E00E9427078DB79EB748960FB67E
:10534000F8949EBF0FBE8DBF1BC0CE51EC2FF0E076
:10535000E25DFE4F80818093D60112C061E003C000
:1053600061E006C06AE08091D6010E94D22408C0A4
:105370008091D6010E94752503C08BE098E013C090
:105380008091D601882369F01F928F9385E098E081
:105390009F938F930E94C0070F900F900F900F90D4
:1053A00004C082E098E00E94270781E006C01092C6
:1053B000D70180E002C080E000CFCF9108950E9425
:1053C000E6296894B1110C94752A08950E945A2A0E
:1053D00088F09F5798F0B92F9927B751B0F0E1F0B6
:1053E000660F771F881F991F1AF0BA95C9F714C066
:1053F000B13091F00E94742AB1E008950C94742A9F
:10540000672F782F8827B85F39F0B93FCCF386959E
:1054100077956795B395D9F73EF4909580957095FB
:1054200061957F4F8F4F9F4F0895E89409C097FB78
:105430003EF490958095709561957F4F8F4F9F4F6B
:105440009923A9F0F92F96E9BB279395F6958795AF
:1054500077956795B795F111F8CFFAF4BB0F11F472
:1054600060FF1BC06F5F7F4F8F4F9F4F16C0882319
:1054700011F096E911C0772321F09EE8872F762F4F
:1054800005C0662371F096E8862F70E060E02AF090
:105490009A95660F771F881FDAF7880F969587957C
:1054A00097F9089557FD9058440F551F59F05F3FE5
:1054B00071F04795880F97FB991F61F09F3F79F036
:1054C00087950895121613061406551FF2CF4695B8
:1054D000F1DF08C0161617061806991FF1CF86953A
:1054E0007105610508940895E894BB27662777271E
:1054F000CB0197F908950E948E2A0C94FF2A0E94EE
:10550000F12A38F00E94F82A20F0952311F00C942B
:10551000E82A0C94EE2A11240C94752A0E94522A2F
:1055200070F3959FC1F3950F50E0551F629FF001F6
:10553000729FBB27F00DB11D639FAA27F00DB11D0F
:10554000AA1F649F6627B00DA11D661F829F222798
:10555000B00DA11D621F739FB00DA11D621F839F1F
:10556000A00D611D221F749F3327A00D611D231FF5
:10557000849F600D211D822F762F6A2F11249F5743
:1055800050409AF0F1F088234AF0EE0FFF1FBB1F46
:10559000661F771F881F91505040A9F79E3F510505
:1055A00080F00C94E82A0C94752A5F3FE4F3983E4F
:1055B000D4F3869577956795B795F795E7959F5FAF
:1055C000C1F7FE2B880F911D9695879597F9089541
:1055D00097F99F6780E870E060E008959FEF80ECA6
:1055E000089500240A941616170618060906089549
:1055F00000240A9412161306140605060895092EAF
:105600000394000C11F4882352F0BB0F40F4BF2B1D
:1056100011F460FF04C06F5F7F4F8F4F9F4F08955D
:10562000991B79E004C0991F961708F0961B881FF4
:105630007A95C9F78095089597FB072E16F4009484
:1056400007D077FD09D00E94392B07FC05D03EF426
:10565000909581959F4F0895709561957F4F08951E
:10566000EE0FFF1F0024001C0BBE0790F691E02DEB
:105670000994AA1BBB1B51E107C0AA1FBB1FA61799
:10568000B70710F0A61BB70B881F991F5A95A9F7EB
:1056900080959095BC01CD010895F999FECF92BDFA
:1056A00081BDF89A992780B50895A8E1B0E042E05D
:1056B00050E00C94702B262FF999FECF1FBA92BDA3
:1056C00081BD20BD0FB6F894FA9AF99A0FBE0196E3
:1056D00008950E945B2B272F0C945C2BDC01CB01DF
:1056E000FC01F999FECF06C0F2BDE1BDF89A3196F2
:1056F00000B40D9241505040B8F70895F894FFCF90
:1057000005C509B60A930A5F0A2B0A0101B50128EB
:1057100008140A321E404D36223965051805E20488
:10572000C0048704FA0313042C0445046504010231
:08573000030405060708090047
:00000001FF
